{
  "contractName": "Deposit",
  "abi": [
    {
      "inputs": [],
      "stateMutability": "nonpayable",
      "type": "constructor"
    },
    {
      "inputs": [],
      "name": "aToken",
      "outputs": [
        {
          "internalType": "contract IaToken",
          "name": "",
          "type": "address"
        }
      ],
      "stateMutability": "view",
      "type": "function"
    },
    {
      "inputs": [],
      "name": "aaveLendingPool",
      "outputs": [
        {
          "internalType": "contract IAaveLendingPool",
          "name": "",
          "type": "address"
        }
      ],
      "stateMutability": "view",
      "type": "function"
    },
    {
      "inputs": [],
      "name": "matic",
      "outputs": [
        {
          "internalType": "contract IERC20",
          "name": "",
          "type": "address"
        }
      ],
      "stateMutability": "view",
      "type": "function"
    },
    {
      "inputs": [
        {
          "internalType": "address",
          "name": "",
          "type": "address"
        }
      ],
      "name": "userDepositedMatic",
      "outputs": [
        {
          "internalType": "uint256",
          "name": "",
          "type": "uint256"
        }
      ],
      "stateMutability": "view",
      "type": "function"
    },
    {
      "inputs": [
        {
          "internalType": "uint256",
          "name": "_amountInMatic",
          "type": "uint256"
        }
      ],
      "name": "userDepositMatic",
      "outputs": [],
      "stateMutability": "nonpayable",
      "type": "function"
    }
  ],
  "bytecode": "0x6080604052730d500b1d8e8ef31e21c99d1db9a6444d3adf12706000806101000a81548173ffffffffffffffffffffffffffffffffffffffff021916908373ffffffffffffffffffffffffffffffffffffffff1602179055507358ad4cb396411b691a9aab6f74545b2c5217fe6a600160006101000a81548173ffffffffffffffffffffffffffffffffffffffff021916908373ffffffffffffffffffffffffffffffffffffffff16021790555073580d4fdc4bf8f9b5ae2fb9225d584fed4ad5375c600260006101000a81548173ffffffffffffffffffffffffffffffffffffffff021916908373ffffffffffffffffffffffffffffffffffffffff16021790555034801561010e57600080fd5b5060008054906101000a900473ffffffffffffffffffffffffffffffffffffffff1673ffffffffffffffffffffffffffffffffffffffff1663095ea7b3600260009054906101000a900473ffffffffffffffffffffffffffffffffffffffff167fffffffffffffffffffffffffffffffffffffffffffffffffffffffffffffffff6040518363ffffffff1660e01b81526004016101ac92919061024f565b6020604051808303816000875af11580156101cb573d6000803e3d6000fd5b505050506040513d601f19601f820116820180604052508101906101ef91906102b5565b506102e2565b600073ffffffffffffffffffffffffffffffffffffffff82169050919050565b6000610220826101f5565b9050919050565b61023081610215565b82525050565b6000819050919050565b61024981610236565b82525050565b60006040820190506102646000830185610227565b6102716020830184610240565b9392505050565b600080fd5b60008115159050919050565b6102928161027d565b811461029d57600080fd5b50565b6000815190506102af81610289565b92915050565b6000602082840312156102cb576102ca610278565b5b60006102d9848285016102a0565b91505092915050565b61074f806102f16000396000f3fe608060405234801561001057600080fd5b50600436106100575760003560e01c806318488fb11461005c578063a0c1f15e1461008c578063b417a483146100aa578063b6b0b097146100c6578063e9d337b8146100e4575b600080fd5b610076600480360381019061007191906103c5565b610102565b604051610083919061040b565b60405180910390f35b61009461011a565b6040516100a19190610485565b60405180910390f35b6100c460048036038101906100bf91906104cc565b610140565b005b6100ce610318565b6040516100db919061051a565b60405180910390f35b6100ec61033c565b6040516100f99190610556565b60405180910390f35b60036020528060005260406000206000915090505481565b600160009054906101000a900473ffffffffffffffffffffffffffffffffffffffff1681565b80600360003373ffffffffffffffffffffffffffffffffffffffff1673ffffffffffffffffffffffffffffffffffffffff1681526020019081526020016000208190555060008054906101000a900473ffffffffffffffffffffffffffffffffffffffff1673ffffffffffffffffffffffffffffffffffffffff166323b872dd3330846040518463ffffffff1660e01b81526004016101e193929190610580565b6020604051808303816000875af1158015610200573d6000803e3d6000fd5b505050506040513d601f19601f8201168201806040525081019061022491906105ef565b610263576040517f08c379a000000000000000000000000000000000000000000000000000000000815260040161025a90610679565b60405180910390fd5b600260009054906101000a900473ffffffffffffffffffffffffffffffffffffffff1673ffffffffffffffffffffffffffffffffffffffff1663d2d0e06660008054906101000a900473ffffffffffffffffffffffffffffffffffffffff168360006040518463ffffffff1660e01b81526004016102e3939291906106e2565b600060405180830381600087803b1580156102fd57600080fd5b505af1158015610311573d6000803e3d6000fd5b5050505050565b60008054906101000a900473ffffffffffffffffffffffffffffffffffffffff1681565b600260009054906101000a900473ffffffffffffffffffffffffffffffffffffffff1681565b600080fd5b600073ffffffffffffffffffffffffffffffffffffffff82169050919050565b600061039282610367565b9050919050565b6103a281610387565b81146103ad57600080fd5b50565b6000813590506103bf81610399565b92915050565b6000602082840312156103db576103da610362565b5b60006103e9848285016103b0565b91505092915050565b6000819050919050565b610405816103f2565b82525050565b600060208201905061042060008301846103fc565b92915050565b6000819050919050565b600061044b61044661044184610367565b610426565b610367565b9050919050565b600061045d82610430565b9050919050565b600061046f82610452565b9050919050565b61047f81610464565b82525050565b600060208201905061049a6000830184610476565b92915050565b6104a9816103f2565b81146104b457600080fd5b50565b6000813590506104c6816104a0565b92915050565b6000602082840312156104e2576104e1610362565b5b60006104f0848285016104b7565b91505092915050565b600061050482610452565b9050919050565b610514816104f9565b82525050565b600060208201905061052f600083018461050b565b92915050565b600061054082610452565b9050919050565b61055081610535565b82525050565b600060208201905061056b6000830184610547565b92915050565b61057a81610387565b82525050565b60006060820190506105956000830186610571565b6105a26020830185610571565b6105af60408301846103fc565b949350505050565b60008115159050919050565b6105cc816105b7565b81146105d757600080fd5b50565b6000815190506105e9816105c3565b92915050565b60006020828403121561060557610604610362565b5b6000610613848285016105da565b91505092915050565b600082825260208201905092915050565b7f4d61746963204465706f7369746f2066616c6c6f000000000000000000000000600082015250565b600061066360148361061c565b915061066e8261062d565b602082019050919050565b6000602082019050818103600083015261069281610656565b9050919050565b6000819050919050565b600061ffff82169050919050565b60006106cc6106c76106c284610699565b610426565b6106a3565b9050919050565b6106dc816106b1565b82525050565b60006060820190506106f76000830186610571565b61070460208301856103fc565b61071160408301846106d3565b94935050505056fea2646970667358221220209102fb4f8a925caebf4d7de4b120ecbdef645f64615f5758d94ff35c6f03f664736f6c63430008110033",
  "immutableReferences": {},
  "source": " // SPDX-License-Identifier: MIT\r\npragma solidity 0.8.17;\r\nimport '../interface/openzeppelin/IERC20.sol';\r\n\r\ninterface IaToken {\r\n    function balanceOf(address _user) external view returns (uint256);\r\n    function redeem(uint256 _amount) external;\r\n}\r\n\r\n\r\ninterface IAaveLendingPool {\r\n    function deposit(address _reserve, uint256 _amount, uint16 _referralCode) external;\r\n}\r\n\r\ncontract Deposit {\r\n    IERC20 public matic = IERC20(0x0d500B1d8E8eF31E21C99d1Db9A6444d3ADf1270);\r\n    IaToken public aToken = IaToken(0x58AD4cB396411B691A9AAb6F74545b2C5217FE6a);\r\n    IAaveLendingPool public aaveLendingPool = IAaveLendingPool(0x580D4Fdc4BF8f9b5ae2fb9225D584fED4AD5375c);\r\n    \r\n    mapping(address => uint256) public userDepositedMatic;\r\n    \r\n    constructor() {\r\n        matic.approve(address(aaveLendingPool), type(uint256).max);\r\n    }\r\n    //Funcion para depositar\r\n    function userDepositMatic(uint256 _amountInMatic) external {\r\n        userDepositedMatic[msg.sender] = _amountInMatic;\r\n        require(matic.transferFrom(msg.sender, address(this), _amountInMatic), \"Matic Deposito fallo\");\r\n        aaveLendingPool.deposit(address(matic), _amountInMatic, 0);\r\n    }\r\n    //Funcion para retirar lo depositado\r\n   /*  function userWithdrawMatic(uint256 _amountInMatic) external {\r\n        require(userDepositedMatic[msg.sender] >= _amountInMatic, \"No se puede retirar mas de lo depositado\");\r\n\r\n        aToken.redeem(_amountInMatic);\r\n        require(matic.transferFrom(address(this), msg.sender, _amountInMatic), \"Matic Transferencia fallo\");\r\n        \r\n        userDepositedMatic[msg.sender] = userDepositedMatic[msg.sender] - _amountInMatic;\r\n    } */\r\n    /* function addBalance() external{\r\n        const setWMaticBalanceFor = (async (address, amount) => {\r\n        const wmaticSlot = 3;\r\n        const newBalance = ethers.utils.parseUnits(amount);\r\n        const index      = ethers.utils.solidityKeccak256(['uint256', 'uint256'], [address, wmaticSlot]);\r\n        const balance32  = ethers.utils.hexlify(ethers.utils.zeroPad(newBalance.toHexString(), 32));\r\n        await ethers.provider.send('hardhat_setStorageAt', [\"0x0d500b1d8e8ef31e21c99d1db9a6444d3adf1270\", index.toString(), balance32]);\r\n    })\r\n    } */\r\n}",
  "sourcePath": "C:\\Users\\Usuario\\Desktop\\2PI\\hardHatProject\\contracts\\Deposit.sol",
  "compiler": {
    "name": "solc",
    "version": "0.8.17+commit.8df45f5f.Emscripten.clang"
  },
  "schemaVersion": "3.4.10",
  "updatedAt": "2022-11-16T16:30:35.165Z",
  "devdoc": {
    "kind": "dev",
    "methods": {},
    "version": 1
  },
  "userdoc": {
    "kind": "user",
    "methods": {},
    "version": 1
  }
}